:1000C8001408003F065B4F666D7D077F6F000000D8
:0600D80000000000000022
:0D00DF00007F047ECD7DBBDDFEDEFCDFFA80
:0100EC0022F1
:10008F00E4F51CF51DF51CF51DAF1DA8077401083F
:10009F008002C333D8FCF4F590740A2FF8E6F4F518
:1000AF00801200DF051DE51D7002051CC39408E5D5
:0900BF001C6480948040D280C7CB
:03000000020003F8
:0C000300787FE4F6D8FD75811D02004AEC
:10000F0002008FE493A3F8E493A34003F68001F278
:10001F0008DFF48029E493A3F85407240CC8C333F2
:10002F00C4540F4420C8834004F456800146F6DFC1
:10003F00E4800B01020408102040809000C8E47E89
:10004F00019360BCA3FF543F30E509541FFEE493B6
:10005F00A360010ECF54C025E060A840B8E493A37D
:10006F00FAE493A3F8E493A3C8C582C8CAC583CAA8
:10007F00F0A3C8C582C8CAC583CADFE9DEE780BE60
:0100DE000021
:00000001FF
